S0150000315F62757A7A65725F626565702E73726563E2
S11300000C9472000C9493000C9493000C94930041
S11300100C9493000C94D7010C94B2010C949300AB
S11300200C9493000C9493000C9493000C94930000
S11300300C9493000C9493000C9493000C949300F0
S11300400C9493000C9493000C9493000C949300E0
S11300500C9493000C9493000C9493000C949300D0
S11300600C9493000C9493000C9493000C949300C0
S11300700C9493000C9493000C9493000C949300B0
S11300800C9493000C9493000C9493000C949300A0
S11300900C9493000C9493000C9493000C94930090
S11300A00C9493000C9493000C9493000C94930080
S11300B00C9493000C9493000C9493000C94930070
S11300C00C9493000C9493000C9493000C94930060
S11300D00C9493000C9493000C9493000C94930050
S11300E00C94930011241FBECFEFD1E2DEBFCDBF2D
S11300F000E00CBF12E0A0E0B2E0EAE4F9E100E0C5
S11301000BBF02C007900D92A231B107D9F722E0CC
S1130110A2E1B2E001C01D92AA32B207E1F70E9447
S1130120340A0C94A30C0C94000086E69EE001971C
S1130130F1F700004098419880E388B9429AEFEFC4
S1130140F7E43197F1F700C000004298E6E6FEE0DC
S11301503197F1F700004098419888B9429AEFEF3F
S1130160F7E43197F1F700C000004298E6E6FEE0BC
S11301703197F1F700004098419888B9429A8FEF7F
S113018097E40197F1F700C000004298E6E6FEE02C
S11301903197F1F700004098419880E288B9429A7B
S11301A08FEF97E40197F1F700C00000429808959B
S11301B098B19F7098B998B1282F207F922B98B945
S11301C040984198429AEFEFF7E43197F1F700C075
S11301D00000429898B19F7098B998B18295807F39
S11301E0892B88B940984198429A8FEF97E40197F8
S11301F0F1F700C00000429808950E94950086E639
S11302009EE00197F1F7000088E20E94D80081E0A7
S11302100E94D80086E00E94D8008EE00E94D80098
S113022080E80E94D8000895E1ECF0E0108210927A
S1130230C00086E08093C2008FE58093C4001092D2
S1130240C50088E980830895259A2D9A0895269AF1
S11302502E9A0895279A2F9A0895E1E8F0E01082E3
S11302608CEF8093850081E08093840093E09093E9
S113027089008FEF8093880090938B0080938A008D
S113028090938D0080938C009093870080938600D8
S11302908BEA80938000109282008CE08083089522
S11302A083E0809389008FEF80938800089583E032
S11302B080938B008FEF80938A00089583E080936E
S11302C08D008FEF80938C00089587B1876F87B975
S11302D088B1807888B9089510BA11BA10920701CC
S11302E010920801089581B18F6081B982B1807F35
S11302F082B9EAE0F1E0808188618083EBE0F1E09B
S113030080818861808308956C98749A08956D98AB
S1130310759A08953B9A439808950E948A010E9411
S113032065010E946C010E9473010E9484010E9475
S113033087010E9424010E9427010E942A01089536
S1130340F894EAE6F0E0808182608083EC9A789405
S11303500895F894EAE6F0E0808188608083ED9A5D
S1130360789408951F920F920FB60F9211248F93D1
S11303709F93AF93BF938091160290911702A0911F
S11303801802B09119020196A11DB11D80931602A5
S113039090931702A0931802B0931902BF91AF91E2
S11303A09F918F910F900FBE0F901F9018951F92E1
S11303B00F920FB60F9211248F939F93AF93BF9315
S11303C080911A0290911B02A0911C02B0911D020F
S11303D00196A11DB11D80931A0290931B02A09354
S11303E01C02B0931D02BF91AF919F918F910F900A
S11303F00FBE0F901F901895E1E2F1E010828FEF8D
S11304008093250191E09093240110922901809317
S1130410280110922B0180932A0110922D018093C0
S11304202C0189EA809320018BE080830895EAE718
S1130430F0E0108210927B0080E280937C0080E8E0
S113044080BF86E880830895883018F098E0909300
S11304507B008770806280937C00EAE7F0E0808113
S113046080648083808184FFFDCF80917900EAE7F6
S1130470F0E090819061908310927B00089592B196
S1130480907F8F70982B92B9089586B1886088B94F
S1130490089586B1877F88B9089586E00E943F0257
S11304A0089589E00E943F02089585E00E943F027A
S11304B008958AE00E943F02089580E00E943F026E
S11304C00895BC0180E090E00E94150C25EE30ED0B
S11304D04AEA50E40E94740B0E94E60BAB01BC0193
S11304E0109216021092170210921802109219021A
S11304F08091160290911702A0911802B0911902EE
S1130500481759076A077B0798F70E945D02089508
S1130510CF93DF93EC010E944D028CED8093280170
S113052080932A01CE010E946102DF91CF91089548
S1130530F8940E948D010E9414010E9417020E94E7
S1130540FC010E942D010E94A0010E94A90178943F
S113055008952FEF8FE793E4215080409040E1F716
S113056000C0000010928B0088E580938A002FEF72
S11305708FE793E4215080409040E1F700C00000F1
S11305801092890083E8809388002FEF8FE793E42B
S1130590215080409040E1F700C0000010928D008F
S11305A083E280938C002FEF8FE793E42150804007
S11305B09040E1F700C000000E9450010E945701E2
S11305C00E945E010895EF92FF920F931F93CF93C1
S11305D0DF93EC01E0912002F0912102EE0FFF1F66
S11305E0EA5FFD4F8081805C8093C6002FEF8FEB24
S11305F096E0215080409040E1F700C00000109246
S1130600890083E880938800EFEFFFE723E4E1505B
S1130610F0402040E1F700C000000E9450010F2E7E
S1130620FBE8EF2EF12CF02DF70110820AE810E020
S113063086E2F8018083FFEF2FE783E4F150204046
S11306408040E1F700C000000E94570110928D0025
S11306508CE480938C009FEFEFE7F3E49150E0404B
S1130660F040E1F700C000000E945E01F701108233
S113067088E5F8018083FFEF2FE783E4F150204001
S11306808040E1F700C000000E945701C230D1054C
S113069009F471C024F4219709F4A0C0D0C0C33078
S11306A0D105B1F1249709F0CAC01092890081E5FF
S11306B0809388009FEFEFE7F3E49150E040F0402F
S11306C0E1F700C000000E94500110928B0083E407
S11306D080938A002FEF8FE793E42150804090406D
S11306E0E1F700C000000E94570110928D0083E2E0
S11306F080938C00EFEFFFE723E4E150F0402040CB
S1130700E1F700C000000E945E010E94A90297C0A8
S11307101092890080E4809388008FEF9FE7E3E4E0
S113072081509040E040E1F700C000000E94500179
S113073010928B0081E480938A00FFEF2FE783E41B
S1130740F15020408040E1F700C000000E945701B2
S113075010928D0083E280938C009FEFEFE7F3E427
S11307609150E040F040E1F700C000000E945E01BB
S11307700E94A90264C0109289008FE280938800CD
S11307802FEF8FE793E4215080409040E1F700C0C1
S113079000000E94500110928B0083E480938A0031
S11307A0EFEFFFE723E4E150F0402040E1F700C021
S11307B000000E94570110928D0083E280938C0008
S11307C08FEF9FE7E3E481509040E040E1F700C001
S11307D000000E945E010E94A90231C010928900AB
S11307E0C3E2C0938800FFEF2FE783E4F150204079
S11307F08040E1F700C000000E94500110928B007D
S11308008DE380938A009FEFEFE7F3E49150E0409B
S1130810F040E1F700C000000E94570110928D00E3
S1130820C0938C002FEF8FE793E4215080409040D9
S1130830E1F700C000000E945E010E94A9020E942C
S113084050010E9457010E945E01DF91CF911F91D8
S11308500F91FF90EF90089583E00E94240280930B
S1130860150282E00E9424028093140281E00E9417
S11308702402809313028BE00E94240280931202CC
S11308800895BF92CF92DF92EF92FF920F931F933E
S1130890CF93DF936C01E12CF12C08E211E0CAE262
S11308A0D1E0BB24BA940E942C04809114028932B2
S11308B030F00E944D02F801B082B88213C08091DA
S11308C01502883230F40E944D02F801B082188279
S11308D009C080911302883228F40E944D02F80165
S11308E01082B882209114028091150290E0820F48
S11308F0911D20911302820F911D853B91059CF25D
S113090080912602909127029C0123703327232B88
S113091039F09C012150310923703327232B39F4FA
S1130920892B29F08AE090E00E94880204C082E3C7
S113093090E00E948802EC14FD04A4F010922702B7
S1130940109226020E945D021092280110922A0140
S1130950FFEF2FE786E1F15020408040E1F700C02F
S1130960000004C09FEFE91AF90A9DCFDF91CF91EF
S11309701F910F91FF90EF90DF90CF90BF9008955B
S1130980EF92FF920F931F93CF93DF93EC010E949A
S1130990590286E98093280180932A012097C1F0A7
S11309A02FEF8FE79DE0215080409040E1F700C099
S11309B0000021970E942C0480911302803230F4AD
S11309C00E942C04809113028032D0F3209741F7C7
S11309D00E945D02EFEFFFE726E1E150F040204086
S11309E0E1F700C000000E942C04809114028032C0
S11309F0E8F4809115028132C8F00F2EF8E2EF2E50
S1130A00FF24F394F02DC6E90AE211E00E942C04BD
S1130A100E945502F701C083F801C083809114023B
S1130A20803220F480911502813280F70E945D02A9
S1130A30FFEF2FE786E1F15020408040E1F700C04E
S1130A400000DF91CF911F910F91FF90EF900895D7
S1130A50EF92FF920F931F93CF93DF93EC010E94C9
S1130A60550286E98093280180932A012097C1F0DA
S1130A702FEF8FE79DE0215080409040E1F700C0C8
S1130A80000021970E942C0480911502803230F4DA
S1130A900E942C04809115028032D0F3209741F7F4
S1130AA00E945D02EFEFFFE726E1E150F0402040B5
S1130AB0E1F700C000000E942C04809114028032EF
S1130AC0E8F4809113028132C8F00F2EF8E2EF2E81
S1130AD0FF24F394F02DC6E90AE211E00E942C04ED
S1130AE00E945902F701C083F801C0838091140267
S1130AF0803220F480911302813280F70E945D02DB
S1130B00FFEF2FE786E1F15020408040E1F700C07D
S1130B100000DF91CF911F910F91FF90EF90089506
S1130B2081E090E00E94C00408952F923F924F927A
S1130B305F926F927F928F929F92AF92BF92CF9269
S1130B40DF92EF92FF920F931F93CF93DF937C0179
S1130B508DE48093C6002FEF8FEB96E02150804008
S1130B609040E1F700C000008091200290912102A2
S1130B706C01E1E0CE1AD1081E141F047CF1F601C9
S1130B80E050FE4F20812093C6006C01F2E0CF1AA2
S1130B90D1082FEF8FEF90EE215080409040E1F785
S1130BA000C0000010928B0088E480938A00EFEF6D
S1130BB0FFE723E4E150F0402040E1F700C00000EB
S1130BC010928D0083E280938C008FEF9FE7E3E423
S1130BD081509040E040E1F700C000000E94A9026B
S1130BE0F5E0EF16F1040CF0FCC187012FEFE21AD7
S1130BF0F20A0F2EF9E86F2E712CF02D0F2EF8E863
S1130C004F2E512CF02D0F2EFBE88F2E912CF02D12
S1130C100F2EFAE8AF2EB12CF02D0F2EFDE82F2E5B
S1130C20312CF02D05C00F5F1F4F8FEFE81AF80A23
S1130C30E8010430110509F071C0F601E050FE4FDF
S1130C408081E6ECF0E08083F1E0CF1AD1082FEF49
S1130C508FE793E4215080409040E1F700C000000A
S1130C60F301108281E5F2018083FFEF2FE783E433
S1130C70F15020408040E1F700C00000F4011082F0
S1130C802DE3F50120838FEF9FE7E3E4815090404B
S1130C90E040E1F700C00000F10110822EE4ECE82E
S1130CA0F0E020838FEF9FE7E3E481509040E04041
S1130CB0E1F700C00000F401108228E5F50120836B
S1130CC08FEF9FE7E3E481509040E040E1F700C0FC
S1130CD00000F301108223E8F20120838FEF9FE7E5
S1130CE0E3E481509040E040E1F700C00000F401EB
S1130CF0108228E4F50120838FEF9FE7E3E481501D
S1130D009040E040E1F700C00000F101108223E2CE
S1130D10ECE8F0E020830E94A902EAC00330110548
S1130D2009F071C0F601E050FE4F8081E6ECF0E07E
S1130D308083F1E0CF1AD1082FEF8FE793E421509D
S1130D4080409040E1F700C00000F301108280E48D
S1130D50F2018083FFEF2FE783E4F15020408040CD
S1130D60E1F700C00000F40110822DE3F5012083B7
S1130D708FEF9FE7E3E481509040E040E1F700C04B
S1130D800000F10110822EE4ECE8F0E020838FEF04
S1130D909FE7E3E481509040E040E1F700C00000A9
S1130DA0F401108228E5F50120838FEF9FE7E3E447
S1130DB081509040E040E1F700C00000F301108250
S1130DC023E8F20120838FEF9FE7E3E48150904012
S1130DD0E040E1F700C00000F401108228E4F501CE
S1130DE020838FEF9FE7E3E481509040E040E1F7F8
S1130DF000C00000F101108223E2ECE8F0E020835F
S1130E000E94A902E9C00230110509F071C0F6017F
S1130E10E050FE4F8081E6ECF0E08083F1E0CF1AF1
S1130E20D1082FEF8FE793E4215080409040E1F701
S1130E3000C00000F30110828FE2F2018083FFEF13
S1130E402FE783E4F15020408040E1F700C0000028
S1130E50F40110822DE3F50120838FEF9FE7E3E493
S1130E6081509040E040E1F700C00000F1011082A1
S1130E702EE4ECE8F0E020838FEF9FE7E3E4815079
S1130E809040E040E1F700C00000F401108228E542
S1130E90F50120838FEF9FE7E3E481509040E04029
S1130EA0E1F700C00000F301108223E8F20120837F
S1130EB08FEF9FE7E3E481509040E040E1F700C00A
S1130EC00000F401108228E4F50120838FEF9FE7EE
S1130ED0E3E481509040E040E1F700C00000F101FC
S1130EE0108223E2ECE8F0E020830E94A90274C09F
S1130EF0219709F071C0F601E050FE4F8081E6ECC5
S1130F00F0E08083F1E0CF1AD1082FEF8FE793E46C
S1130F10215080409040E1F700C00000F3011082AE
S1130F2023E2F20120838FEF9FE7E3E481509040B6
S1130F30E040E1F700C00000F40110822DE3F50168
S1130F4020838FEF9FE7E3E481509040E040E1F796
S1130F5000C00000F10110822EE4ECE8F0E02083F0
S1130F608FEF9FE7E3E481509040E040E1F700C059
S1130F700000F401108228E5F50120838FEF9FE73C
S1130F80E3E481509040E040E1F700C00000F30149
S1130F90108223E8F20120838FEF9FE7E3E481507E
S1130FA09040E040E1F700C00000F401108228E422
S1130FB0F50120838FEF9FE7E3E481509040E04008
S1130FC0E1F700C00000F101108223E2ECE8F0E058
S1130FD020830E94A90227CE85E0E816F1040CF4D0
S1130FE022CEDF91CF911F910F91FF90EF90DF9070
S1130FF0CF90BF90AF909F908F907F906F905F90B5
S11310004F903F902F9008959C01CB01821B930B2E
S11310100197261737073CF420FF01962F5F3F4FB7
S113102062177307C9F70895EF92FF920F931F9306
S1131030CF938C018091280290912902019690937C
S113104029028093280205301105ECF481E3809392
S1131050C60081E090E090932502809324020E94D0
S11310602805B80181E090E00E94040801960E94DE
S1131070410481E090E00E942805809112028823B7
S11310800CF04DC061C0093011057CF582E090E0A0
S11310909093250280932402073011058CF481E09B
S11310A090E00E94C00467E070E0C8010E94040858
S11310B001970E94410481E090E00E94C00410C0A6
S11310C081E090E00E942805B80186E090E00E944B
S11310D0040801970E94410481E090E00E942805E1
S11310E082E090E00E944104C8CF83E38093C6006D
S11310F082E090E0909325028093240281E090E0C6
S11311000E94C0046CE070E0C8010E9404080196CB
S11311100E94410481E090E00E94C004AECF0F2EF3
S1131120F8E2EF2EFF24F394F02DCCED0AE211E067
S11311300E942C040E944D02F701C083F801C08371
S1131140809112028823A4F70E945D02FFEF2FE72B
S113115086E1F15020408040E1F700C00000CF91CB
S11311601F910F91FF90EF900895DF92EF92FF92FD
S11311700F931F93CF93DF938091200290912102CC
S1131180863091050CF068C120912202309123022F
S11311902F3F3F4F09F460C1C1E0D0E00F2EFBE8C0
S11311A0EF2EF12CF02D0AE810E00F2EF6E2DF2EE0
S11311B0F02D20911E0230911F02232B09F070C0E4
S11311C0880F991FFC01EA5FFD4F20813181309324
S11311D0270220932602D0931F02C0931E02C90146
S11311E099230CF401969595879501960E94C00465
S11311F0E0912002F0912102EE0FFF1FEA5FFD4F04
S1131200808191818130910511F00C9729F482E05D
S113121090E00E94410403C0CE010E944104E09189
S11312202002F0912102EE0FFF1FEA5FFD4F808143
S113123080FD04C0CE010E94280503C0CE010E9497
S1131240C00480E090E00E9441040E945D028FEFA0
S11312509FE7E6E181509040E040E1F700C00000E4
S1131260E0912002F0912102EE0FFF1FEA5FFD4F93
S1131270808180FD04C0CE010E94C004B4C0F70187
S11312801082F801D082FFEF2FE743E4F1502040B1
S11312904040E1F700C00000CE010E942805A3C031
S11312A00E9490052091200230912102F901EE0F55
S11312B0FF1FEC5FFD4F80819181853091050CF01B
S11312C0C3C0F901EE0FFF1FEA5FFD4F408151815A
S11312D0453051050CF4B0C0493051050CF0A4C0A0
S11312E064E070E00E94040801960E944104CE016B
S11312F00E94C004E0912002F0912102EE0FFF1F32
S1131300EA5FFD4F6081718185E090E00E940408EE
S11313100E94410458C0F901EE0FFF1FEA5FFD4F20
S113132040815181493051050CF442C068E070E0BD
S11313300E94040801960E944104CE010E94C00448
S1131340E0912002F0912102EE0FFF1FEA5FFD4FB2
S11313506081718189E090E00E94040801960E94F6
S1131360410431C0493051051CF164E070E00E9431
S1131370040801960E944104CE010E94C00485E045
S113138090E00E944104CE010E94C004E09120023A
S1131390F0912102EE0FFF1FEA5FFD4F6081718122
S11313A089E090E00E94040801960E9441040BC069
S11313B0220F331FF901EA5FFD4F608171810E94A2
S11313C004080E944104F7011082F801D082FFEF63
S11313D02FE743E4F15020404040E1F700C0000013
S11313E0CE010E94280580912202909123020E943E
S11313F0E3022091220230912302215031093093DB
S113140023022093220280912002909121020196CE
S1131410909321028093200286309105ECF42F3FB3
S11314203F4F09F0C6CE18C09C0125503109243025
S1131430310508F47BCF99CFBC0165507109643044
S1131440710508F08FCF67CFAC0145505109443086
S1131450510508F460CFACCFDF91CF911F910F916C
S1131460FF90EF90DF9008953F924F925F926F92BA
S11314707F928F929F92AF92BF92CF92DF92EF9220
S1131480FF920F931F93CF93DF930E9498020E94C1
S113149095000E94FD000E94A90280912002909173
S11314A0210206970CF0E4C0C4E0D0E00F2EF8E26D
S11314B0EF2EFF24F394F02D0F2EFCED5F2EF02D74
S11314C00AE211E00F2EFBE8CF2ED12CF02D0F2EC7
S11314D0FAE88F2E912CF02D0F2EF6E24F2EF02DE0
S11314E00F2EFCE0AF2EB12CF02D0F2EF6EC6F2E4C
S11314F0712CF02D0F2EF1E33F2EF02DD09323020B
S1131500C09322028091280290912902892B09F428
S113151090C00E945102F7015082F80150828CE27F
S113152091E00E9461020E945D02FFEF2FE736E125
S1131530F15020403040E1F700C0000080912402C7
S1131540909125020297E9F482E090E00E94C004A1
S113155080E090E00E944104CE010E94C0040E94F9
S1131560A9028FEF9FE7E3E481509040E040E1F768
S113157000C0000010921F0210921E020E94B508C3
S11315805EC081E090E00E94C00480E090E00E9490
S1131590410481E090E00E942805E0912002F0914E
S11315A02102EE0FFF1FEA5FFD4F808191818A3097
S11315B0910539F4F301308283E090E00E94410404
S11315C006C09501281B390BC9010E944104F6018C
S11315D01082F4014082FFEF2FE733E4F150204002
S11315E03040E1F700C0000081E090E00E94C004B8
S11315F080912202909123020E94E30280912202B0
S11316009091230201979093230280932202809168
S1131610200290912102019690932102809320024E
S113162081E090E090931F0280931E020E94B5080F
S113163006C010921F0210921E020E94B508E0918B
S11316402002F0912102EE0FFF1FEC5FFD4F80811D
S113165091810E94140880912202909123020E9499
S11316609505809120029091210206970CF446CFB3
S11316700E945D0285E68093C6008FEF9FEBE6E053
S113168081509040E040E1F700C000000E94450214
S1131690FFEF2FEF30EE80E0F150204030408040EB
S11316A0D9F700C000000E9449029FEFEFEFFBE46E
S11316B02DE19150E040F0402040D9F700C00000F7
S11316C080E090E0DF91CF911F910F91FF90EF9018
S11316D0DF90CF90BF90AF909F908F907F906F904E
S11316E05F904F903F9008950E94880B0C94690C72
S11316F00E94620C58F00E945B0C40F029F45F3F9A
S113170029F00C94520C51110C949D0C0C94580C0F
S11317100E947A0C68F39923B1F3552391F3951B36
S1131720550BBB27AA2762177307840738F09F5FFE
S11317305F4F220F331F441FAA1FA9F335D00E2E6B
S11317403AF0E0E832D091505040E695001CCAF7D8
S11317502BD0FE2F29D0660F771F881FBB1F26179B
S113176037074807AB07B0E809F0BB0B802DBF0172
S1131770FF2793585F4F3AF09E3F510578F00C9441
S1131780520C0C949D0C5F3FE4F3983ED4F3869581
S113179077956795B795F7959F5FC9F7880F911D62
S11317A09695879597F90895E1E0660F771F881F4E
S11317B0BB1F621773078407BA0720F0621B730B01
S11317C0840BBA0BEE1F88F7E09508950E94820CF3
S11317D088F09F5798F0B92F9927B751B0F0E1F0EE
S11317E0660F771F881F991F1AF0BA95C9F714C09E
S11317F0B13091F00E949C0CB1E008950C949C0CC3
S1131800672F782F8827B85F39F0B93FCCF38695D6
S113181077956795B395D9F73EF490958095709533
S113182061957F4F8F4F9F4F0895E89409C097FBB0
S11318303EF490958095709561957F4F8F4F9F4FA3
S11318409923A9F0F92F96E9BB279395F6958795E7
S113185077956795B795F111F8CFFAF4BB0F11F4AA
S113186060FF1BC06F5F7F4F8F4F9F4F16C0882351
S113187011F096E911C0772321F09EE8872F762F87
S113188005C0662371F096E8862F70E060E02AF0C8
S11318909A95660F771F881FDAF7880F96958795B4
S11318A097F9089597F99F6780E870E060E00895DC
S11318B09FEF80EC089500240A9416161706180664
S11318C00906089500240A94121613061406050640
S11318D00895092E0394000C11F4882352F0BB0FD1
S11318E040F4BF2B11F460FF04C06F5F7F4F8F4F34
S11318F09F4F089557FD9058440F551F59F05F3F6F
S113190071F04795880F97FB991F61F09F3F79F01D
S113191087950895121613061406551FF2CF46959F
S1131920F1DF08C0161617061806991FF1CF869521
S11319307105610508940895E894BB276627772705
S10D1940CB0197F90895F894FFCF46
S113194A6279627272670C000300050007000900DD
S105195A0C007B
S903116A81
